{
  "contractName": "Certification",
  "abi": [
    {
      "inputs": [],
      "stateMutability": "nonpayable",
      "type": "constructor"
    },
    {
      "inputs": [],
      "name": "certCount",
      "outputs": [
        {
          "internalType": "uint256",
          "name": "",
          "type": "uint256"
        }
      ],
      "stateMutability": "view",
      "type": "function",
      "constant": true
    },
    {
      "inputs": [
        {
          "internalType": "uint256",
          "name": "",
          "type": "uint256"
        }
      ],
      "name": "certs",
      "outputs": [
        {
          "internalType": "uint256",
          "name": "id",
          "type": "uint256"
        },
        {
          "internalType": "string",
          "name": "name",
          "type": "string"
        },
        {
          "internalType": "string",
          "name": "certName",
          "type": "string"
        },
        {
          "internalType": "uint256",
          "name": "graduateYear",
          "type": "uint256"
        }
      ],
      "stateMutability": "view",
      "type": "function",
      "constant": true
    },
    {
      "inputs": [
        {
          "internalType": "string",
          "name": "_name",
          "type": "string"
        },
        {
          "internalType": "string",
          "name": "_certName",
          "type": "string"
        },
        {
          "internalType": "uint256",
          "name": "_graduateYear",
          "type": "uint256"
        }
      ],
      "name": "setCertificate",
      "outputs": [],
      "stateMutability": "nonpayable",
      "type": "function"
    },
    {
      "inputs": [
        {
          "internalType": "uint256",
          "name": "_certId",
          "type": "uint256"
        }
      ],
      "name": "getCertificate",
      "outputs": [
        {
          "internalType": "uint256",
          "name": "",
          "type": "uint256"
        },
        {
          "internalType": "string",
          "name": "",
          "type": "string"
        },
        {
          "internalType": "string",
          "name": "",
          "type": "string"
        },
        {
          "internalType": "uint256",
          "name": "",
          "type": "uint256"
        }
      ],
      "stateMutability": "view",
      "type": "function",
      "constant": true
    },
    {
      "inputs": [],
      "name": "getcertCount",
      "outputs": [
        {
          "internalType": "uint256",
          "name": "",
          "type": "uint256"
        }
      ],
      "stateMutability": "view",
      "type": "function",
      "constant": true
    }
  ],
  "bytecode": "0x608060405234801561001057600080fd5b50336000806101000a81548173ffffffffffffffffffffffffffffffffffffffff021916908373ffffffffffffffffffffffffffffffffffffffff160217905550610c9f806100606000396000f3fe608060405234801561001057600080fd5b50600436106100575760003560e01c806351640fee1461005c578063646750d61461008f57806381c001ec146100c2578063d4e207a2146100e0578063efd9c582146100fe575b600080fd5b61007660048036038101906100719190610562565b61011a565b604051610086949392919061062e565b60405180910390f35b6100a960048036038101906100a49190610562565b6102a2565b6040516100b9949392919061062e565b60405180910390f35b6100ca6103e2565b6040516100d79190610681565b60405180910390f35b6100e86103ec565b6040516100f59190610681565b60405180910390f35b610118600480360381019061011391906107d1565b6103f2565b005b600060608060006001600086815260200190815260200160002060000154600160008781526020019081526020016000206001016001600088815260200190815260200160002060020160016000898152602001908152602001600020600301548280546101879061088b565b80601f01602080910402602001604051908101604052809291908181526020018280546101b39061088b565b80156102005780601f106101d557610100808354040283529160200191610200565b820191906000526020600020905b8154815290600101906020018083116101e357829003601f168201915b505050505092508180546102139061088b565b80601f016020809104026020016040519081016040528092919081815260200182805461023f9061088b565b801561028c5780601f106102615761010080835404028352916020019161028c565b820191906000526020600020905b81548152906001019060200180831161026f57829003601f168201915b5050505050915093509350935093509193509193565b60016020528060005260406000206000915090508060000154908060010180546102cb9061088b565b80601f01602080910402602001604051908101604052809291908181526020018280546102f79061088b565b80156103445780601f1061031957610100808354040283529160200191610344565b820191906000526020600020905b81548152906001019060200180831161032757829003601f168201915b5050505050908060020180546103599061088b565b80601f01602080910402602001604051908101604052809291908181526020018280546103859061088b565b80156103d25780601f106103a7576101008083540402835291602001916103d2565b820191906000526020600020905b8154815290600101906020018083116103b557829003601f168201915b5050505050908060030154905084565b6000600254905090565b60025481565b60008054906101000a900473ffffffffffffffffffffffffffffffffffffffff1673ffffffffffffffffffffffffffffffffffffffff163373ffffffffffffffffffffffffffffffffffffffff1614610480576040517f08c379a000000000000000000000000000000000000000000000000000000000815260040161047790610954565b60405180910390fd5b60026000815480929190610493906109a3565b919050555060405180608001604052806002548152602001848152602001838152602001828152506001600060025481526020019081526020016000206000820151816000015560208201518160010190816104ef9190610b97565b5060408201518160020190816105059190610b97565b5060608201518160030155905050505050565b6000604051905090565b600080fd5b600080fd5b6000819050919050565b61053f8161052c565b811461054a57600080fd5b50565b60008135905061055c81610536565b92915050565b60006020828403121561057857610577610522565b5b60006105868482850161054d565b91505092915050565b6105988161052c565b82525050565b600081519050919050565b600082825260208201905092915050565b60005b838110156105d85780820151818401526020810190506105bd565b60008484015250505050565b6000601f19601f8301169050919050565b60006106008261059e565b61060a81856105a9565b935061061a8185602086016105ba565b610623816105e4565b840191505092915050565b6000608082019050610643600083018761058f565b818103602083015261065581866105f5565b9050818103604083015261066981856105f5565b9050610678606083018461058f565b95945050505050565b6000602082019050610696600083018461058f565b92915050565b600080fd5b600080fd5b7f4e487b7100000000000000000000000000000000000000000000000000000000600052604160045260246000fd5b6106de826105e4565b810181811067ffffffffffffffff821117156106fd576106fc6106a6565b5b80604052505050565b6000610710610518565b905061071c82826106d5565b919050565b600067ffffffffffffffff82111561073c5761073b6106a6565b5b610745826105e4565b9050602081019050919050565b82818337600083830152505050565b600061077461076f84610721565b610706565b9050828152602081018484840111156107905761078f6106a1565b5b61079b848285610752565b509392505050565b600082601f8301126107b8576107b761069c565b5b81356107c8848260208601610761565b91505092915050565b6000806000606084860312156107ea576107e9610522565b5b600084013567ffffffffffffffff81111561080857610807610527565b5b610814868287016107a3565b935050602084013567ffffffffffffffff81111561083557610834610527565b5b610841868287016107a3565b92505060406108528682870161054d565b9150509250925092565b7f4e487b7100000000000000000000000000000000000000000000000000000000600052602260045260246000fd5b600060028204905060018216806108a357607f821691505b6020821081036108b6576108b561085c565b5b50919050565b7f4f6e6c7920746865206f776e6572206f66207468697320736d61727420636f6e60008201527f747261637420697320616c6c6f77656420746f2061646420636572746966696360208201527f6174696f6e207265636f72642100000000000000000000000000000000000000604082015250565b600061093e604d836105a9565b9150610949826108bc565b606082019050919050565b6000602082019050818103600083015261096d81610931565b9050919050565b7f4e487b7100000000000000000000000000000000000000000000000000000000600052601160045260246000fd5b60006109ae8261052c565b91507fffffffffffffffffffffffffffffffffffffffffffffffffffffffffffffffff82036109e0576109df610974565b5b600182019050919050565b60008190508160005260206000209050919050565b60006020601f8301049050919050565b600082821b905092915050565b600060088302610a4d7fffffffffffffffffffffffffffffffffffffffffffffffffffffffffffffffff82610a10565b610a578683610a10565b95508019841693508086168417925050509392505050565b6000819050919050565b6000610a94610a8f610a8a8461052c565b610a6f565b61052c565b9050919050565b6000819050919050565b610aae83610a79565b610ac2610aba82610a9b565b848454610a1d565b825550505050565b600090565b610ad7610aca565b610ae2818484610aa5565b505050565b5b81811015610b0657610afb600082610acf565b600181019050610ae8565b5050565b601f821115610b4b57610b1c816109eb565b610b2584610a00565b81016020851015610b34578190505b610b48610b4085610a00565b830182610ae7565b50505b505050565b600082821c905092915050565b6000610b6e60001984600802610b50565b1980831691505092915050565b6000610b878383610b5d565b9150826002028217905092915050565b610ba08261059e565b67ffffffffffffffff811115610bb957610bb86106a6565b5b610bc3825461088b565b610bce828285610b0a565b600060209050601f831160018114610c015760008415610bef578287015190505b610bf98582610b7b565b865550610c61565b601f198416610c0f866109eb565b60005b82811015610c3757848901518255600182019150602085019450602081019050610c12565b86831015610c545784890151610c50601f891682610b5d565b8355505b6001600288020188555050505b50505050505056fea2646970667358221220975b060a747cdea4d594680c88d2223ac9e880445bc3d57d5a4737e00ffb4f3364736f6c63430008110033",
  "immutableReferences": {},
  "source": "// SPDX-License-Identifier: GPL-3.0\n// 0xA7E0897BAaFf48b859f14798c3003e1cCFd5D3b8\npragma solidity >=0.7.0 <0.9.0;\n\ncontract Certification {\n\n    address owner;\n    \n    struct Certificate {\n        uint id;\n        string name;\n        string certName;\n        uint graduateYear;\n    }\n   \n    mapping(uint => Certificate) public certs;\n    \n    uint public certCount;    \n\n    constructor() {\n\n        owner = msg.sender;\n\n    }\n\n    function setCertificate(string memory _name, string memory _certName, uint _graduateYear) public {\n\n        require(msg.sender==owner,\"Only the owner of this smart contract is allowed to add certification record!\");\n        certCount++;\n        certs[certCount] = Certificate(certCount,_name, _certName, _graduateYear);\n\n    }\n\n    function getCertificate(uint _certId) public view returns (uint, string memory, string memory, uint) {\n\n        return (certs[_certId].id, certs[_certId].name, certs[_certId].certName, certs[_certId].graduateYear);\n\n    }\n\n    function getcertCount() public view returns (uint) {\n\n        return certCount;\n    }\n\n    /*\n   \n    function getName(uint _certId) public view returns (string memory) {\n\n        return certs[_certId].name;\n\n    }\n\n    function getCertName(uint _certId) public view returns (string memory) {\n\n        return certs[_certId].certName;\n\n    }\n\n    function getGraduateYear(uint _certId) public view returns (uint) {\n\n        return certs[_certId].graduateYear;\n\n    }\n\n    */\n}",
  "sourcePath": "/Users/nurariffinmohdzin/Documents/web3_certification/contracts/Certification.sol",
  "compiler": {
    "name": "solc",
    "version": "0.8.17+commit.8df45f5f.Emscripten.clang"
  },
  "schemaVersion": "3.4.10",
  "updatedAt": "2022-11-19T00:46:51.388Z",
  "networkType": "ethereum",
  "devdoc": {
    "kind": "dev",
    "methods": {},
    "version": 1
  },
  "userdoc": {
    "kind": "user",
    "methods": {},
    "version": 1
  }
}